{
  "contractName": "TokemakUniLPStrategy",
  "abi": [
    {
      "anonymous": false,
      "inputs": [
        {
          "indexed": false,
          "internalType": "address",
          "name": "_investor",
          "type": "address"
        },
        {
          "indexed": false,
          "internalType": "uint256",
          "name": "_amount",
          "type": "uint256"
        }
      ],
      "name": "Deposit",
      "type": "event"
    },
    {
      "anonymous": false,
      "inputs": [
        {
          "indexed": true,
          "internalType": "address",
          "name": "previousOwner",
          "type": "address"
        },
        {
          "indexed": true,
          "internalType": "address",
          "name": "newOwner",
          "type": "address"
        }
      ],
      "name": "OwnershipTransferred",
      "type": "event"
    },
    {
      "anonymous": false,
      "inputs": [
        {
          "indexed": false,
          "internalType": "address",
          "name": "_investor",
          "type": "address"
        },
        {
          "indexed": false,
          "internalType": "uint256",
          "name": "_amount",
          "type": "uint256"
        }
      ],
      "name": "RequestWithdraw",
      "type": "event"
    },
    {
      "anonymous": false,
      "inputs": [
        {
          "indexed": false,
          "internalType": "address",
          "name": "_investor",
          "type": "address"
        },
        {
          "indexed": false,
          "internalType": "uint256",
          "name": "_amount",
          "type": "uint256"
        }
      ],
      "name": "Stake",
      "type": "event"
    },
    {
      "anonymous": false,
      "inputs": [
        {
          "indexed": false,
          "internalType": "address",
          "name": "_investor",
          "type": "address"
        },
        {
          "indexed": false,
          "internalType": "uint256",
          "name": "_amount",
          "type": "uint256"
        }
      ],
      "name": "Withdraw",
      "type": "event"
    },
    {
      "inputs": [],
      "name": "owner",
      "outputs": [
        {
          "internalType": "address",
          "name": "",
          "type": "address"
        }
      ],
      "stateMutability": "view",
      "type": "function",
      "constant": true
    },
    {
      "inputs": [],
      "name": "renounceOwnership",
      "outputs": [],
      "stateMutability": "nonpayable",
      "type": "function"
    },
    {
      "inputs": [],
      "name": "stakes",
      "outputs": [
        {
          "internalType": "uint256",
          "name": "",
          "type": "uint256"
        }
      ],
      "stateMutability": "view",
      "type": "function",
      "constant": true
    },
    {
      "inputs": [],
      "name": "tokemakManagerContract",
      "outputs": [
        {
          "internalType": "contract IManager",
          "name": "",
          "type": "address"
        }
      ],
      "stateMutability": "view",
      "type": "function",
      "constant": true
    },
    {
      "inputs": [],
      "name": "tokemakRwrdContract",
      "outputs": [
        {
          "internalType": "contract IRewards",
          "name": "",
          "type": "address"
        }
      ],
      "stateMutability": "view",
      "type": "function",
      "constant": true
    },
    {
      "inputs": [],
      "name": "tokemakUniLpPool",
      "outputs": [
        {
          "internalType": "contract ILiquidityPool",
          "name": "",
          "type": "address"
        }
      ],
      "stateMutability": "view",
      "type": "function",
      "constant": true
    },
    {
      "inputs": [],
      "name": "tokematAsset",
      "outputs": [
        {
          "internalType": "contract IERC20",
          "name": "",
          "type": "address"
        }
      ],
      "stateMutability": "view",
      "type": "function",
      "constant": true
    },
    {
      "inputs": [
        {
          "internalType": "address",
          "name": "newOwner",
          "type": "address"
        }
      ],
      "name": "transferOwnership",
      "outputs": [],
      "stateMutability": "nonpayable",
      "type": "function"
    },
    {
      "inputs": [],
      "name": "uniV2LpTokensPairs",
      "outputs": [
        {
          "internalType": "contract IUniswapV2Pair",
          "name": "",
          "type": "address"
        }
      ],
      "stateMutability": "view",
      "type": "function",
      "constant": true
    },
    {
      "inputs": [],
      "name": "uniswapV2Router02",
      "outputs": [
        {
          "internalType": "contract IUniswapV2Router02",
          "name": "",
          "type": "address"
        }
      ],
      "stateMutability": "view",
      "type": "function",
      "constant": true
    },
    {
      "inputs": [],
      "name": "wethAsset",
      "outputs": [
        {
          "internalType": "contract IERC20",
          "name": "",
          "type": "address"
        }
      ],
      "stateMutability": "view",
      "type": "function",
      "constant": true
    },
    {
      "inputs": [
        {
          "internalType": "address",
          "name": "_tokemakUniLpPoolAddress",
          "type": "address"
        },
        {
          "internalType": "address",
          "name": "_tokemakRwrdContractAddress",
          "type": "address"
        },
        {
          "internalType": "address",
          "name": "_tokemakManagerContractAddress",
          "type": "address"
        },
        {
          "internalType": "address",
          "name": "_uniswapV2Router02Address",
          "type": "address"
        },
        {
          "internalType": "address",
          "name": "_wethAddress",
          "type": "address"
        },
        {
          "internalType": "address",
          "name": "_tokeAddress",
          "type": "address"
        },
        {
          "internalType": "address",
          "name": "_uniV2LpTokensPairsAddress",
          "type": "address"
        }
      ],
      "name": "initialize",
      "outputs": [],
      "stateMutability": "nonpayable",
      "type": "function"
    },
    {
      "inputs": [
        {
          "internalType": "uint256",
          "name": "_amount",
          "type": "uint256"
        }
      ],
      "name": "deposits",
      "outputs": [],
      "stateMutability": "nonpayable",
      "type": "function"
    },
    {
      "inputs": [],
      "name": "rewardsSigner",
      "outputs": [
        {
          "internalType": "address",
          "name": "",
          "type": "address"
        }
      ],
      "stateMutability": "nonpayable",
      "type": "function"
    },
    {
      "inputs": [
        {
          "components": [
            {
              "internalType": "uint256",
              "name": "chainId",
              "type": "uint256"
            },
            {
              "internalType": "uint256",
              "name": "cycle",
              "type": "uint256"
            },
            {
              "internalType": "address",
              "name": "wallet",
              "type": "address"
            },
            {
              "internalType": "uint256",
              "name": "amount",
              "type": "uint256"
            }
          ],
          "internalType": "struct IRewards.Recipient",
          "name": "recipient",
          "type": "tuple"
        },
        {
          "internalType": "uint8",
          "name": "v",
          "type": "uint8"
        },
        {
          "internalType": "bytes32",
          "name": "r",
          "type": "bytes32"
        },
        {
          "internalType": "bytes32",
          "name": "s",
          "type": "bytes32"
        }
      ],
      "name": "claim",
      "outputs": [],
      "stateMutability": "nonpayable",
      "type": "function"
    },
    {
      "inputs": [
        {
          "components": [
            {
              "internalType": "uint256",
              "name": "chainId",
              "type": "uint256"
            },
            {
              "internalType": "uint256",
              "name": "cycle",
              "type": "uint256"
            },
            {
              "internalType": "address",
              "name": "wallet",
              "type": "address"
            },
            {
              "internalType": "uint256",
              "name": "amount",
              "type": "uint256"
            }
          ],
          "internalType": "struct IRewards.Recipient",
          "name": "recipient",
          "type": "tuple"
        }
      ],
      "name": "getClaimableAmount",
      "outputs": [
        {
          "internalType": "uint256",
          "name": "",
          "type": "uint256"
        }
      ],
      "stateMutability": "nonpayable",
      "type": "function"
    },
    {
      "inputs": [
        {
          "components": [
            {
              "internalType": "uint256",
              "name": "chainId",
              "type": "uint256"
            },
            {
              "internalType": "uint256",
              "name": "cycle",
              "type": "uint256"
            },
            {
              "internalType": "address",
              "name": "wallet",
              "type": "address"
            },
            {
              "internalType": "uint256",
              "name": "amount",
              "type": "uint256"
            }
          ],
          "internalType": "struct IRewards.Recipient",
          "name": "recipient",
          "type": "tuple"
        },
        {
          "internalType": "uint8",
          "name": "v",
          "type": "uint8"
        },
        {
          "internalType": "bytes32",
          "name": "r",
          "type": "bytes32"
        },
        {
          "internalType": "bytes32",
          "name": "s",
          "type": "bytes32"
        }
      ],
      "name": "autoCompoundWithPermit",
      "outputs": [],
      "stateMutability": "nonpayable",
      "type": "function"
    },
    {
      "inputs": [
        {
          "internalType": "uint256",
          "name": "_amount",
          "type": "uint256"
        }
      ],
      "name": "requestWithdrawal",
      "outputs": [],
      "stateMutability": "nonpayable",
      "type": "function"
    },
    {
      "inputs": [],
      "name": "currentCycle",
      "outputs": [
        {
          "internalType": "uint256",
          "name": "_cycle",
          "type": "uint256"
        }
      ],
      "stateMutability": "view",
      "type": "function",
      "constant": true
    },
    {
      "inputs": [
        {
          "internalType": "uint256",
          "name": "_amount",
          "type": "uint256"
        }
      ],
      "name": "withdraw",
      "outputs": [],
      "stateMutability": "nonpayable",
      "type": "function"
    },
    {
      "inputs": [],
      "name": "tokeToken",
      "outputs": [
        {
          "internalType": "contract IERC20",
          "name": "",
          "type": "address"
        }
      ],
      "stateMutability": "nonpayable",
      "type": "function"
    }
  ],
  "bytecode": "0x608060405234801561001057600080fd5b50613c76806100206000396000f3fe608060405234801561001057600080fd5b50600436106101365760003560e01c8063a68d49e9116100b8578063bc0a0e921161007c578063bc0a0e92146102f1578063d5d171b91461030f578063e1fc86911461032d578063efd5d26514610349578063f2fde38b14610367578063f3595be21461038357610136565b8063a68d49e91461024b578063a7c6402c1461027b578063ad09c7ce14610299578063b02c43d0146102b7578063bab2f552146102d357610136565b8063715018a6116100ff578063715018a6146101cd578063715331f4146101d757806384ad6d50146101f55780638da5cb5b146102115780639ee679e81461022f57610136565b80622f5abf1461013b5780632e1a7d4d1461015957806335876476146101755780633fc57e2b146101915780634e67b54b146101af575b600080fd5b6101436103a1565b6040516101509190613040565b60405180910390f35b610173600480360381019061016e91906129c6565b6103c7565b005b61018f600480360381019061018a9190612757565b61068d565b005b610199610947565b6040516101a69190613076565b60405180910390f35b6101b761096d565b6040516101c49190613025565b60405180910390f35b6101d5610a16565b005b6101df610a9e565b6040516101ec919061305b565b60405180910390f35b61020f600480360381019061020a9190612914565b610ac4565b005b610219610deb565b6040516102269190612f2c565b60405180910390f35b610249600480360381019061024491906129c6565b610e15565b005b61026560048036038101906102609190612888565b610f2a565b6040516102729190613307565b60405180910390f35b610283610fe0565b60405161029091906130ac565b60405180910390f35b6102a1611006565b6040516102ae9190613307565b60405180910390f35b6102d160048036038101906102cc91906129c6565b61100c565b005b6102db611320565b6040516102e89190613307565b60405180910390f35b6102f96113c7565b6040516103069190613025565b60405180910390f35b6103176113ed565b6040516103249190613025565b60405180910390f35b610347600480360381019061034291906128b1565b611413565b005b6103516114ac565b60405161035e9190612f2c565b60405180910390f35b610381600480360381019061037c9190612705565b611555565b005b61038b61164d565b6040516103989190613091565b60405180910390f35b606a60009054906101000a900473ffffffffffffffffffffffffffffffffffffffff1681565b6000606a60009054906101000a900473ffffffffffffffffffffffffffffffffffffffff1673ffffffffffffffffffffffffffffffffffffffff1663bb582d8061040f611673565b6040518263ffffffff1660e01b815260040161042b9190612f2c565b604080518083038186803b15801561044257600080fd5b505afa158015610456573d6000803e3d6000fd5b505050506040513d601f19601f8201168201806040525081019061047a9190612a18565b509050606960009054906101000a900473ffffffffffffffffffffffffffffffffffffffff1673ffffffffffffffffffffffffffffffffffffffff1663857909456040518163ffffffff1660e01b815260040160206040518083038186803b1580156104e557600080fd5b505afa1580156104f9573d6000803e3d6000fd5b505050506040513d601f19601f8201168201806040525081019061051d91906129ef565b811161055e576040517f08c379a0000000000000000000000000000000000000000000000000000000008152600401610555906130c7565b60405180910390fd5b606c548211156105a3576040517f08c379a000000000000000000000000000000000000000000000000000000000815260040161059a90613127565b60405180910390fd5b81606c60008282546105b59190613531565b92505081905550606a60009054906101000a900473ffffffffffffffffffffffffffffffffffffffff1673ffffffffffffffffffffffffffffffffffffffff16632e1a7d4d836040518263ffffffff1660e01b81526004016106179190613307565b600060405180830381600087803b15801561063157600080fd5b505af1158015610645573d6000803e3d6000fd5b505050507f884edad9ce6fa2440d8a54cc123490eb96d2768479d49ff9c7366125a9424364610672611673565b83604051610681929190612ffc565b60405180910390a15050565b600060019054906101000a900460ff166106b55760008054906101000a900460ff16156106be565b6106bd61167b565b5b6106fd576040517f08c379a00000000000000000000000000000000000000000000000000000000081526004016106f490613167565b60405180910390fd5b60008060019054906101000a900460ff16159050801561074d576001600060016101000a81548160ff02191690831515021790555060016000806101000a81548160ff0219169083151502179055505b61075561168c565b87606a60006101000a81548173ffffffffffffffffffffffffffffffffffffffff021916908373ffffffffffffffffffffffffffffffffffffffff16021790555086606860006101000a81548173ffffffffffffffffffffffffffffffffffffffff021916908373ffffffffffffffffffffffffffffffffffffffff16021790555085606960006101000a81548173ffffffffffffffffffffffffffffffffffffffff021916908373ffffffffffffffffffffffffffffffffffffffff16021790555084606b60006101000a81548173ffffffffffffffffffffffffffffffffffffffff021916908373ffffffffffffffffffffffffffffffffffffffff16021790555083606760006101000a81548173ffffffffffffffffffffffffffffffffffffffff021916908373ffffffffffffffffffffffffffffffffffffffff16021790555082606660006101000a81548173ffffffffffffffffffffffffffffffffffffffff021916908373ffffffffffffffffffffffffffffffffffffffff16021790555081606560006101000a81548173ffffffffffffffffffffffffffffffffffffffff021916908373ffffffffffffffffffffffffffffffffffffffff160217905550801561093d5760008060016101000a81548160ff0219169083151502179055505b5050505050505050565b606860009054906101000a900473ffffffffffffffffffffffffffffffffffffffff1681565b6000606860009054906101000a900473ffffffffffffffffffffffffffffffffffffffff1673ffffffffffffffffffffffffffffffffffffffff16634e67b54b6040518163ffffffff1660e01b8152600401602060405180830381600087803b1580156109d957600080fd5b505af11580156109ed573d6000803e3d6000fd5b505050506040513d601f19601f82011682018060405250810190610a11919061285f565b905090565b610a1e611673565b73ffffffffffffffffffffffffffffffffffffffff16610a3c610deb565b73ffffffffffffffffffffffffffffffffffffffff1614610a92576040517f08c379a0000000000000000000000000000000000000000000000000000000008152600401610a8990613187565b60405180910390fd5b610a9c60006116e5565b565b606960009054906101000a900473ffffffffffffffffffffffffffffffffffffffff1681565b60003073ffffffffffffffffffffffffffffffffffffffff1663a68d49e9866040518263ffffffff1660e01b8152600401610aff91906132a7565b602060405180830381600087803b158015610b1957600080fd5b505af1158015610b2d573d6000803e3d6000fd5b505050506040513d601f19601f82011682018060405250810190610b5191906129ef565b9050600080821115610cbf573073ffffffffffffffffffffffffffffffffffffffff1663e1fc8691878787876040518563ffffffff1660e01b8152600401610b9c94939291906132c2565b600060405180830381600087803b158015610bb657600080fd5b505af1158015610bca573d6000803e3d6000fd5b50505050606660009054906101000a900473ffffffffffffffffffffffffffffffffffffffff1673ffffffffffffffffffffffffffffffffffffffff166370a08231306040518263ffffffff1660e01b8152600401610c299190612f2c565b60206040518083038186803b158015610c4157600080fd5b505afa158015610c55573d6000803e3d6000fd5b505050506040513d601f19601f82011682018060405250810190610c7991906129ef565b905081811015610cbe576040517f08c379a0000000000000000000000000000000000000000000000000000000008152600401610cb5906131a7565b60405180910390fd5b5b610cc8816117ab565b506000606760009054906101000a900473ffffffffffffffffffffffffffffffffffffffff1673ffffffffffffffffffffffffffffffffffffffff166370a08231306040518263ffffffff1660e01b8152600401610d269190612f2c565b60206040518083038186803b158015610d3e57600080fd5b505afa158015610d52573d6000803e3d6000fd5b505050506040513d601f19601f82011682018060405250810190610d7691906129ef565b90506000610dca606660009054906101000a900473ffffffffffffffffffffffffffffffffffffffff16606760009054906101000a900473ffffffffffffffffffffffffffffffffffffffff168585611a65565b925050506000811115610de157610de081611c9c565b5b5050505050505050565b6000603360009054906101000a900473ffffffffffffffffffffffffffffffffffffffff16905090565b606c54811115610e5a576040517f08c379a0000000000000000000000000000000000000000000000000000000008152600401610e5190613107565b60405180910390fd5b606a60009054906101000a900473ffffffffffffffffffffffffffffffffffffffff1673ffffffffffffffffffffffffffffffffffffffff16639ee679e8826040518263ffffffff1660e01b8152600401610eb59190613307565b600060405180830381600087803b158015610ecf57600080fd5b505af1158015610ee3573d6000803e3d6000fd5b505050507f0afd74a2a0a78f6c15e41029f44995ee023fe49276f44a4b2b2cf674829362e6610f10611673565b82604051610f1f929190612ffc565b60405180910390a150565b6000606860009054906101000a900473ffffffffffffffffffffffffffffffffffffffff1673ffffffffffffffffffffffffffffffffffffffff1663a68d49e9836040518263ffffffff1660e01b8152600401610f879190613247565b602060405180830381600087803b158015610fa157600080fd5b505af1158015610fb5573d6000803e3d6000fd5b505050506040513d601f19601f82011682018060405250810190610fd991906129ef565b9050919050565b606b60009054906101000a900473ffffffffffffffffffffffffffffffffffffffff1681565b606c5481565b6000811161104f576040517f08c379a0000000000000000000000000000000000000000000000000000000008152600401611046906131e7565b60405180910390fd5b606560009054906101000a900473ffffffffffffffffffffffffffffffffffffffff1673ffffffffffffffffffffffffffffffffffffffff1663095ea7b3606b60009054906101000a900473ffffffffffffffffffffffffffffffffffffffff16836040518363ffffffff1660e01b81526004016110ce929190612ffc565b602060405180830381600087803b1580156110e857600080fd5b505af11580156110fc573d6000803e3d6000fd5b505050506040513d601f19601f820116820180604052508101906111209190612836565b50606560009054906101000a900473ffffffffffffffffffffffffffffffffffffffff1673ffffffffffffffffffffffffffffffffffffffff166323b872dd611167611673565b30846040518463ffffffff1660e01b815260040161118793929190612f47565b602060405180830381600087803b1580156111a157600080fd5b505af11580156111b5573d6000803e3d6000fd5b505050506040513d601f19601f820116820180604052508101906111d99190612836565b5080606560009054906101000a900473ffffffffffffffffffffffffffffffffffffffff1673ffffffffffffffffffffffffffffffffffffffff166370a08231306040518263ffffffff1660e01b81526004016112369190612f2c565b60206040518083038186803b15801561124e57600080fd5b505afa158015611262573d6000803e3d6000fd5b505050506040513d601f19601f8201168201806040525081019061128691906129ef565b106112d7577fe1fffcc4923d04b559f4d29a8bfc6cda04eb5b0d3c460751c2402c5c5cc9109c6112b4611673565b826040516112c3929190612ffc565b60405180910390a180606c81905550611312565b6040517f08c379a0000000000000000000000000000000000000000000000000000000008152600401611309906131c7565b60405180910390fd5b61131d606c54611c9c565b50565b6000606960009054906101000a900473ffffffffffffffffffffffffffffffffffffffff1673ffffffffffffffffffffffffffffffffffffffff1663be26ed7f6040518163ffffffff1660e01b815260040160206040518083038186803b15801561138a57600080fd5b505afa15801561139e573d6000803e3d6000fd5b505050506040513d601f19601f820116820180604052508101906113c291906129ef565b905090565b606660009054906101000a900473ffffffffffffffffffffffffffffffffffffffff1681565b606760009054906101000a900473ffffffffffffffffffffffffffffffffffffffff1681565b606860009054906101000a900473ffffffffffffffffffffffffffffffffffffffff1673ffffffffffffffffffffffffffffffffffffffff1663e1fc8691858585856040518563ffffffff1660e01b81526004016114749493929190613262565b600060405180830381600087803b15801561148e57600080fd5b505af11580156114a2573d6000803e3d6000fd5b5050505050505050565b6000606860009054906101000a900473ffffffffffffffffffffffffffffffffffffffff1673ffffffffffffffffffffffffffffffffffffffff1663efd5d2656040518163ffffffff1660e01b8152600401602060405180830381600087803b15801561151857600080fd5b505af115801561152c573d6000803e3d6000fd5b505050506040513d601f19601f82011682018060405250810190611550919061272e565b905090565b61155d611673565b73ffffffffffffffffffffffffffffffffffffffff1661157b610deb565b73ffffffffffffffffffffffffffffffffffffffff16146115d1576040517f08c379a00000000000000000000000000000000000000000000000000000000081526004016115c890613187565b60405180910390fd5b600073ffffffffffffffffffffffffffffffffffffffff168173ffffffffffffffffffffffffffffffffffffffff161415611641576040517f08c379a0000000000000000000000000000000000000000000000000000000008152600401611638906130e7565b60405180910390fd5b61164a816116e5565b50565b606560009054906101000a900473ffffffffffffffffffffffffffffffffffffffff1681565b600033905090565b600061168630611f10565b15905090565b600060019054906101000a900460ff166116db576040517f08c379a00000000000000000000000000000000000000000000000000000000081526004016116d290613207565b60405180910390fd5b6116e3611f33565b565b6000603360009054906101000a900473ffffffffffffffffffffffffffffffffffffffff16905081603360006101000a81548173ffffffffffffffffffffffffffffffffffffffff021916908373ffffffffffffffffffffffffffffffffffffffff1602179055508173ffffffffffffffffffffffffffffffffffffffff168173ffffffffffffffffffffffffffffffffffffffff167f8be0079c531659141344cd1fd0a4f28419497f9722a3daafe3b4186f6b6457e060405160405180910390a35050565b60008061189c606b60009054906101000a900473ffffffffffffffffffffffffffffffffffffffff1673ffffffffffffffffffffffffffffffffffffffff1663c45a01556040518163ffffffff1660e01b815260040160206040518083038186803b15801561181957600080fd5b505afa15801561182d573d6000803e3d6000fd5b505050506040513d601f19601f82011682018060405250810190611851919061272e565b606660009054906101000a900473ffffffffffffffffffffffffffffffffffffffff16606760009054906101000a900473ffffffffffffffffffffffffffffffffffffffff16611f94565b50905060006118ab82856120a6565b90506000600267ffffffffffffffff8111156118f0577f4e487b7100000000000000000000000000000000000000000000000000000000600052604160045260246000fd5b60405190808252806020026020018201604052801561191e5781602001602082028036833780820191505090505b509050606660009054906101000a900473ffffffffffffffffffffffffffffffffffffffff168160008151811061197e577f4e487b7100000000000000000000000000000000000000000000000000000000600052603260045260246000fd5b602002602001019073ffffffffffffffffffffffffffffffffffffffff16908173ffffffffffffffffffffffffffffffffffffffff1681525050606760009054906101000a900473ffffffffffffffffffffffffffffffffffffffff1681600181518110611a15577f4e487b7100000000000000000000000000000000000000000000000000000000600052603260045260246000fd5b602002602001019073ffffffffffffffffffffffffffffffffffffffff16908173ffffffffffffffffffffffffffffffffffffffff1681525050611a5b82600083612110565b9350505050919050565b60008060008673ffffffffffffffffffffffffffffffffffffffff1663095ea7b3606b60009054906101000a900473ffffffffffffffffffffffffffffffffffffffff16876040518363ffffffff1660e01b8152600401611ac7929190612ffc565b602060405180830381600087803b158015611ae157600080fd5b505af1158015611af5573d6000803e3d6000fd5b505050506040513d601f19601f82011682018060405250810190611b199190612836565b508573ffffffffffffffffffffffffffffffffffffffff1663095ea7b3606b60009054906101000a900473ffffffffffffffffffffffffffffffffffffffff16866040518363ffffffff1660e01b8152600401611b77929190612ffc565b602060405180830381600087803b158015611b9157600080fd5b505af1158015611ba5573d6000803e3d6000fd5b505050506040513d601f19601f82011682018060405250810190611bc99190612836565b50606b60009054906101000a900473ffffffffffffffffffffffffffffffffffffffff1673ffffffffffffffffffffffffffffffffffffffff1663e8e337008888888860008030426040518963ffffffff1660e01b8152600401611c34989796959493929190612f7e565b606060405180830381600087803b158015611c4e57600080fd5b505af1158015611c62573d6000803e3d6000fd5b505050506040513d601f19601f82011682018060405250810190611c869190612a54565b8093508194508295505050509450945094915050565b606560009054906101000a900473ffffffffffffffffffffffffffffffffffffffff1673ffffffffffffffffffffffffffffffffffffffff1663095ea7b3606b60009054906101000a900473ffffffffffffffffffffffffffffffffffffffff16836040518363ffffffff1660e01b8152600401611d1b929190612ffc565b602060405180830381600087803b158015611d3557600080fd5b505af1158015611d49573d6000803e3d6000fd5b505050506040513d601f19601f82011682018060405250810190611d6d9190612836565b50606560009054906101000a900473ffffffffffffffffffffffffffffffffffffffff1673ffffffffffffffffffffffffffffffffffffffff1663095ea7b3606a60009054906101000a900473ffffffffffffffffffffffffffffffffffffffff16836040518363ffffffff1660e01b8152600401611ded929190612ffc565b602060405180830381600087803b158015611e0757600080fd5b505af1158015611e1b573d6000803e3d6000fd5b505050506040513d601f19601f82011682018060405250810190611e3f9190612836565b50606a60009054906101000a900473ffffffffffffffffffffffffffffffffffffffff1673ffffffffffffffffffffffffffffffffffffffff1663b6b55f25826040518263ffffffff1660e01b8152600401611e9b9190613307565b600060405180830381600087803b158015611eb557600080fd5b505af1158015611ec9573d6000803e3d6000fd5b505050507febedb8b3c678666e7f36970bc8f57abf6d8fa2e828c0da91ea5b75bf68ed101a611ef6611673565b82604051611f05929190612ffc565b60405180910390a150565b6000808273ffffffffffffffffffffffffffffffffffffffff163b119050919050565b600060019054906101000a900460ff16611f82576040517f08c379a0000000000000000000000000000000000000000000000000000000008152600401611f7990613207565b60405180910390fd5b611f92611f8d611673565b6116e5565b565b6000806000611fa385856122f4565b509050600080611fb4888888612422565b73ffffffffffffffffffffffffffffffffffffffff16630902f1ac6040518163ffffffff1660e01b815260040160606040518083038186803b158015611ff957600080fd5b505afa15801561200d573d6000803e3d6000fd5b505050506040513d601f19601f820116820180604052508101906120319190612977565b506dffffffffffffffffffffffffffff1691506dffffffffffffffffffffffffffff1691508273ffffffffffffffffffffffffffffffffffffffff168773ffffffffffffffffffffffffffffffffffffffff1614612090578082612093565b81815b8095508196505050505050935093915050565b60006107ca6107cd846120b991906134d7565b6120f4623cda29866120cb91906134d7565b623cda20866120da91906134d7565b6120e49190613450565b866120ef91906134d7565b612494565b6120fe9190613531565b61210891906134a6565b905092915050565b6000606660009054906101000a900473ffffffffffffffffffffffffffffffffffffffff1673ffffffffffffffffffffffffffffffffffffffff1663095ea7b3606b60009054906101000a900473ffffffffffffffffffffffffffffffffffffffff16866040518363ffffffff1660e01b8152600401612191929190612ffc565b602060405180830381600087803b1580156121ab57600080fd5b505af11580156121bf573d6000803e3d6000fd5b505050506040513d601f19601f820116820180604052508101906121e39190612836565b50606b60009054906101000a900473ffffffffffffffffffffffffffffffffffffffff1673ffffffffffffffffffffffffffffffffffffffff166338ed173985858530426040518663ffffffff1660e01b8152600401612247959493929190613322565b600060405180830381600087803b15801561226157600080fd5b505af1158015612275573d6000803e3d6000fd5b505050506040513d6000823e3d601f19601f8201168201806040525081019061229e91906127f5565b600183516122ac9190613531565b815181106122e3577f4e487b7100000000000000000000000000000000000000000000000000000000600052603260045260246000fd5b602002602001015190509392505050565b6000808273ffffffffffffffffffffffffffffffffffffffff168473ffffffffffffffffffffffffffffffffffffffff161415612366576040517f08c379a000000000000000000000000000000000000000000000000000000000815260040161235d90613147565b60405180910390fd5b8273ffffffffffffffffffffffffffffffffffffffff168473ffffffffffffffffffffffffffffffffffffffff16106123a05782846123a3565b83835b8092508193505050600073ffffffffffffffffffffffffffffffffffffffff168273ffffffffffffffffffffffffffffffffffffffff16141561241b576040517f08c379a000000000000000000000000000000000000000000000000000000000815260040161241290613227565b60405180910390fd5b9250929050565b600080600061243185856122f4565b91509150858282604051602001612449929190612ebe565b60405160208183030381529060405280519060200120604051602001612470929190612eea565b6040516020818303038152906040528051906020012060001c925050509392505050565b600060038211156124fb57819050600060016002846124b391906134a6565b6124bd9190613450565b90505b818110156124f55780915060028182856124da91906134a6565b6124e49190613450565b6124ee91906134a6565b90506124c0565b50612509565b6000821461250857600190505b5b919050565b600061252161251c846133a1565b61337c565b9050808382526020820190508285602086028201111561254057600080fd5b60005b85811015612570578161255688826126c6565b845260208401935060208301925050600181019050612543565b5050509392505050565b60008135905061258981613b88565b92915050565b60008151905061259e81613b88565b92915050565b600082601f8301126125b557600080fd5b81516125c584826020860161250e565b91505092915050565b6000815190506125dd81613b9f565b92915050565b6000813590506125f281613bb6565b92915050565b60008151905061260781613bcd565b92915050565b60006080828403121561261f57600080fd5b81905092915050565b60006080828403121561263a57600080fd5b612644608061337c565b90506000612654848285016126b1565b6000830152506020612668848285016126b1565b602083015250604061267c8482850161257a565b6040830152506060612690848285016126b1565b60608301525092915050565b6000815190506126ab81613be4565b92915050565b6000813590506126c081613bfb565b92915050565b6000815190506126d581613bfb565b92915050565b6000815190506126ea81613c12565b92915050565b6000813590506126ff81613c29565b92915050565b60006020828403121561271757600080fd5b60006127258482850161257a565b91505092915050565b60006020828403121561274057600080fd5b600061274e8482850161258f565b91505092915050565b600080600080600080600060e0888a03121561277257600080fd5b60006127808a828b0161257a565b97505060206127918a828b0161257a565b96505060406127a28a828b0161257a565b95505060606127b38a828b0161257a565b94505060806127c48a828b0161257a565b93505060a06127d58a828b0161257a565b92505060c06127e68a828b0161257a565b91505092959891949750929550565b60006020828403121561280757600080fd5b600082015167ffffffffffffffff81111561282157600080fd5b61282d848285016125a4565b91505092915050565b60006020828403121561284857600080fd5b6000612856848285016125ce565b91505092915050565b60006020828403121561287157600080fd5b600061287f848285016125f8565b91505092915050565b60006080828403121561289a57600080fd5b60006128a88482850161260d565b91505092915050565b60008060008060e085870312156128c757600080fd5b60006128d58782880161260d565b94505060806128e6878288016126f0565b93505060a06128f7878288016125e3565b92505060c0612908878288016125e3565b91505092959194509250565b60008060008060e0858703121561292a57600080fd5b600061293887828801612628565b9450506080612949878288016126f0565b93505060a061295a878288016125e3565b92505060c061296b878288016125e3565b91505092959194509250565b60008060006060848603121561298c57600080fd5b600061299a8682870161269c565b93505060206129ab8682870161269c565b92505060406129bc868287016126db565b9150509250925092565b6000602082840312156129d857600080fd5b60006129e6848285016126b1565b91505092915050565b600060208284031215612a0157600080fd5b6000612a0f848285016126c6565b91505092915050565b60008060408385031215612a2b57600080fd5b6000612a39858286016126c6565b9250506020612a4a858286016126c6565b9150509250929050565b600080600060608486031215612a6957600080fd5b6000612a77868287016126c6565b9350506020612a88868287016126c6565b9250506040612a99868287016126c6565b9150509250925092565b6000612aaf8383612abb565b60208301905092915050565b612ac481613565565b82525050565b612ad381613565565b82525050565b612aea612ae582613565565b61371b565b82525050565b6000612afb826133dd565b612b0581856133f5565b9350612b10836133cd565b8060005b83811015612b41578151612b288882612aa3565b9750612b33836133e8565b925050600181019050612b14565b5085935050505092915050565b612b5781613583565b82525050565b612b6e612b6982613583565b61372d565b82525050565b612b7d81613600565b82525050565b612b8c81613624565b82525050565b612b9b81613648565b82525050565b612baa8161366c565b82525050565b612bb981613690565b82525050565b612bc8816136b4565b82525050565b612bd7816136d8565b82525050565b6000612bea602983613406565b9150612bf5826137f4565b604082019050919050565b6000612c0d602683613406565b9150612c1882613843565b604082019050919050565b6000612c30602c83613406565b9150612c3b82613892565b604082019050919050565b6000612c53602b83613406565b9150612c5e826138e1565b604082019050919050565b6000612c76602583613406565b9150612c8182613930565b604082019050919050565b6000612c99602083613417565b9150612ca48261397f565b602082019050919050565b6000612cbc602e83613406565b9150612cc7826139a8565b604082019050919050565b6000612cdf600183613417565b9150612cea826139f7565b600182019050919050565b6000612d02602083613406565b9150612d0d82613a20565b602082019050919050565b6000612d25602183613406565b9150612d3082613a49565b604082019050919050565b6000612d48601b83613406565b9150612d5382613a98565b602082019050919050565b6000612d6b602283613406565b9150612d7682613ac1565b604082019050919050565b6000612d8e602b83613406565b9150612d9982613b10565b604082019050919050565b6000612db1601e83613406565b9150612dbc82613b5f565b602082019050919050565b60808201612dd86000830183613439565b612de56000850182612e91565b50612df36020830183613439565b612e006020850182612e91565b50612e0e6040830183613422565b612e1b6040850182612abb565b50612e296060830183613439565b612e366060850182612e91565b50505050565b608082016000820151612e526000850182612e91565b506020820151612e656020850182612e91565b506040820151612e786040850182612abb565b506060820151612e8b6060850182612e91565b50505050565b612e9a816135d9565b82525050565b612ea9816135d9565b82525050565b612eb8816135f3565b82525050565b6000612eca8285612ad9565b601482019150612eda8284612ad9565b6014820191508190509392505050565b6000612ef582612cd2565b9150612f018285612ad9565b601482019150612f118284612b5d565b602082019150612f2082612c8c565b91508190509392505050565b6000602082019050612f416000830184612aca565b92915050565b6000606082019050612f5c6000830186612aca565b612f696020830185612aca565b612f766040830184612ea0565b949350505050565b600061010082019050612f94600083018b612aca565b612fa1602083018a612aca565b612fae6040830189612ea0565b612fbb6060830188612ea0565b612fc86080830187612bce565b612fd560a0830186612bce565b612fe260c0830185612aca565b612fef60e0830184612ea0565b9998505050505050505050565b60006040820190506130116000830185612aca565b61301e6020830184612ea0565b9392505050565b600060208201905061303a6000830184612b74565b92915050565b60006020820190506130556000830184612b83565b92915050565b60006020820190506130706000830184612b92565b92915050565b600060208201905061308b6000830184612ba1565b92915050565b60006020820190506130a66000830184612bb0565b92915050565b60006020820190506130c16000830184612bbf565b92915050565b600060208201905081810360008301526130e081612bdd565b9050919050565b6000602082019050818103600083015261310081612c00565b9050919050565b6000602082019050818103600083015261312081612c23565b9050919050565b6000602082019050818103600083015261314081612c46565b9050919050565b6000602082019050818103600083015261316081612c69565b9050919050565b6000602082019050818103600083015261318081612caf565b9050919050565b600060208201905081810360008301526131a081612cf5565b9050919050565b600060208201905081810360008301526131c081612d18565b9050919050565b600060208201905081810360008301526131e081612d3b565b9050919050565b6000602082019050818103600083015261320081612d5e565b9050919050565b6000602082019050818103600083015261322081612d81565b9050919050565b6000602082019050818103600083015261324081612da4565b9050919050565b600060808201905061325c6000830184612dc7565b92915050565b600060e0820190506132776000830187612dc7565b6132846080830186612eaf565b61329160a0830185612b4e565b61329e60c0830184612b4e565b95945050505050565b60006080820190506132bc6000830184612e3c565b92915050565b600060e0820190506132d76000830187612e3c565b6132e46080830186612eaf565b6132f160a0830185612b4e565b6132fe60c0830184612b4e565b95945050505050565b600060208201905061331c6000830184612ea0565b92915050565b600060a0820190506133376000830188612ea0565b6133446020830187612ea0565b81810360408301526133568186612af0565b90506133656060830185612aca565b6133726080830184612ea0565b9695505050505050565b6000613386613397565b905061339282826136ea565b919050565b6000604051905090565b600067ffffffffffffffff8211156133bc576133bb6137a7565b5b602082029050602081019050919050565b6000819050602082019050919050565b600081519050919050565b6000602082019050919050565b600082825260208201905092915050565b600082825260208201905092915050565b600081905092915050565b6000613431602084018461257a565b905092915050565b600061344860208401846126b1565b905092915050565b600061345b826135d9565b9150613466836135d9565b9250827fffffffffffffffffffffffffffffffffffffffffffffffffffffffffffffffff0382111561349b5761349a613749565b5b828201905092915050565b60006134b1826135d9565b91506134bc836135d9565b9250826134cc576134cb613778565b5b828204905092915050565b60006134e2826135d9565b91506134ed836135d9565b9250817fffffffffffffffffffffffffffffffffffffffffffffffffffffffffffffffff048311821515161561352657613525613749565b5b828202905092915050565b600061353c826135d9565b9150613547836135d9565b92508282101561355a57613559613749565b5b828203905092915050565b6000613570826135b9565b9050919050565b60008115159050919050565b6000819050919050565b600061359882613565565b9050919050565b60006dffffffffffffffffffffffffffff82169050919050565b600073ffffffffffffffffffffffffffffffffffffffff82169050919050565b6000819050919050565b600063ffffffff82169050919050565b600060ff82169050919050565b600061360b82613612565b9050919050565b600061361d826135b9565b9050919050565b600061362f82613636565b9050919050565b6000613641826135b9565b9050919050565b60006136538261365a565b9050919050565b6000613665826135b9565b9050919050565b60006136778261367e565b9050919050565b6000613689826135b9565b9050919050565b600061369b826136a2565b9050919050565b60006136ad826135b9565b9050919050565b60006136bf826136c6565b9050919050565b60006136d1826135b9565b9050919050565b60006136e3826135d9565b9050919050565b6136f3826137d6565b810181811067ffffffffffffffff82111715613712576137116137a7565b5b80604052505050565b600061372682613737565b9050919050565b6000819050919050565b6000613742826137e7565b9050919050565b7f4e487b7100000000000000000000000000000000000000000000000000000000600052601160045260246000fd5b7f4e487b7100000000000000000000000000000000000000000000000000000000600052601260045260246000fd5b7f4e487b7100000000000000000000000000000000000000000000000000000000600052604160045260246000fd5b6000601f19601f8301169050919050565b60008160601b9050919050565b7f54556e694c50532030373a205769746864726177616c206e6f7420796574206160008201527f7661696c61626c652e0000000000000000000000000000000000000000000000602082015250565b7f4f776e61626c653a206e6577206f776e657220697320746865207a65726f206160008201527f6464726573730000000000000000000000000000000000000000000000000000602082015250565b7f2054556e694c50532030363a20696e73756666696369656e742066756e64732060008201527f746f2077697468647261772e0000000000000000000000000000000000000000602082015250565b7f54556e694c50532030383a20696e73756666696369656e742066756e6473207460008201527f6f2077697468647261772e000000000000000000000000000000000000000000602082015250565b7f556e697377617056324c6962726172793a204944454e544943414c5f4144445260008201527f4553534553000000000000000000000000000000000000000000000000000000602082015250565b7f96e8ac4277198ff8b6f785478aa9a39f403cb768dd02cbee326c3e7da348845f600082015250565b7f496e697469616c697a61626c653a20636f6e747261637420697320616c72656160008201527f647920696e697469616c697a6564000000000000000000000000000000000000602082015250565b7fff00000000000000000000000000000000000000000000000000000000000000600082015250565b7f4f776e61626c653a2063616c6c6572206973206e6f7420746865206f776e6572600082015250565b7f54556e694c50532030353a205265776172647320636c61696d206661696c656460008201527f2e00000000000000000000000000000000000000000000000000000000000000602082015250565b7f54556e694c50532030343a204465706f736974206661696c65642e0000000000600082015250565b7f54556e694c50532030333a20496e76616c6964206465706f73697420616d6f7560008201527f6e74000000000000000000000000000000000000000000000000000000000000602082015250565b7f496e697469616c697a61626c653a20636f6e7472616374206973206e6f74206960008201527f6e697469616c697a696e67000000000000000000000000000000000000000000602082015250565b7f556e697377617056324c6962726172793a205a45524f5f414444524553530000600082015250565b613b9181613565565b8114613b9c57600080fd5b50565b613ba881613577565b8114613bb357600080fd5b50565b613bbf81613583565b8114613bca57600080fd5b50565b613bd68161358d565b8114613be157600080fd5b50565b613bed8161359f565b8114613bf857600080fd5b50565b613c04816135d9565b8114613c0f57600080fd5b50565b613c1b816135e3565b8114613c2657600080fd5b50565b613c32816135f3565b8114613c3d57600080fd5b5056fea2646970667358221220f5edb4fbc1359d3db5aefca40e40176369ef76e97dfc39a9a0b93f23f8a3685d64736f6c63430008040033",
  "immutableReferences": {},
  "source": "//SPDX-License-Identifier: Unlicense\npragma solidity 0.8.4;\nimport '@openzeppelin/contracts-upgradeable/token/ERC20/utils/SafeERC20Upgradeable.sol';\nimport \"@uniswap/v2-core/contracts/interfaces/IUniswapV2Pair.sol\";\nimport \"@openzeppelin/contracts/token/ERC20/ERC20.sol\";\n\nimport \"@uniswap/v2-periphery/contracts/interfaces/IUniswapV2Router02.sol\";\nimport \"@openzeppelin/contracts-upgradeable/access/OwnableUpgradeable.sol\";\nimport \"@uniswap/lib/contracts/libraries/Babylonian.sol\";\nimport \"./interfaces/IRewards.sol\";\nimport \"./interfaces/IManager.sol\";\nimport \"./interfaces/ILiquidityPool.sol\";\nimport \"./utils/UniswapV2Library.sol\";\n\n// @title Tokemak's UNI LP auto-compound strategy\n// @author Daniel G.\n// @notice Basic implementation of harvesting LP token rewards from Tokemak protocol\n// @dev Solidity coding challengue for Ondo Finance interview\n// @custz is an experimental contract.\ncontract TokemakUniLPStrategy is OwnableUpgradeable, IRewards {\n    using SafeERC20Upgradeable for IERC20;\n\n    // @dev Staking Assets\n    IUniswapV2Pair public uniV2LpTokensPairs;\n    IERC20 public tokematAsset;\n    IERC20 public wethAsset;\n\n    // @dev Tokemak's contract dependencies\n    IRewards public tokemakRwrdContract;\n    IManager public tokemakManagerContract;\n    ILiquidityPool public tokemakUniLpPool;\n\n    // @dev UniswapV2 Router\n    IUniswapV2Router02 public uniswapV2Router02;\n\n    // @notice variables to keep track of stake amounts\n    uint256 public stakes;\n\n    // @dev Auto-compound events to store datapoints on chain\n    event Deposit(address _investor, uint256 _amount);\n    event Stake(address _investor, uint256 _amount);\n    event Withdraw(address _investor, uint256 _amount);\n    event RequestWithdraw(address _investor, uint256 _amount);\n\n    // @notice Init strategy Tokemak's dependencies\n    // @dev Returns Tokemaks contract instances for staking interactions\n    // @param _wethAddress Wrapped Eth address\n    // @param _tokemakRwrdContractAddress Tokemak's rewards controller address\n    // @param _tokemakManagerContractAddress Tokemak's main manager controller address\n    // @param _tokemakUniLpPoolAddress Tokemak's uniswap LP pool address\n    // @param _uniswapV2Router02Address Un\n    function initialize(\n        address _tokemakUniLpPoolAddress,\n        address _tokemakRwrdContractAddress,\n        address _tokemakManagerContractAddress,\n        address _uniswapV2Router02Address,\n        address _wethAddress,\n        address _tokeAddress,\n        address _uniV2LpTokensPairsAddress\n    ) public initializer {\n        __Ownable_init();\n        tokemakUniLpPool = ILiquidityPool(_tokemakUniLpPoolAddress);\n        tokemakRwrdContract = IRewards(_tokemakRwrdContractAddress);\n        tokemakManagerContract = IManager(_tokemakManagerContractAddress);\n        uniswapV2Router02 = IUniswapV2Router02(_uniswapV2Router02Address);\n        wethAsset = IERC20(_wethAddress);\n        tokematAsset = IERC20(_tokeAddress);\n        uniV2LpTokensPairs = IUniswapV2Pair(_uniV2LpTokensPairsAddress);\n    }\n\n    // @notice Deposits Uni LP tokens into contract callable by only owner\n    // @dev Only Uni LP tokens for TOKE-ETH LP pool allowed\n    // @dev Stakes all its deposits in Tokemak's UNI LP token pool\n    // @param _amount Amount of UNI LP token to deposit\n    function deposits(uint256 _amount) public {\n        require(_amount > 0, \"TUniLPS 03: Invalid deposit amount\");\n\n        // @dev Trasnfer UniLP token to this contract\n        uniV2LpTokensPairs.approve(address(uniswapV2Router02), _amount);\n        uniV2LpTokensPairs.transferFrom(_msgSender(), address(this), _amount);\n\n        if (uniV2LpTokensPairs.balanceOf(address(this)) >= _amount) {\n\n            emit Deposit(_msgSender(), _amount);\n            stakes = _amount;\n        } else {\n            revert(\"TUniLPS 04: Deposit failed.\");\n        }\n\n        // @dev stakes all deposits\n        _stake(stakes);\n    }\n\n    // @notice Stakes all its deposits in Tokemak's UNI LP token pool\n    // @param _amount Amount of UNI LP tokens to stake\n    function _stake(uint256 _amount) internal {\n        uniV2LpTokensPairs.approve(address(uniswapV2Router02), _amount);\n        uniV2LpTokensPairs.approve(address(tokemakUniLpPool), _amount);\n        tokemakUniLpPool.deposit(_amount);\n        emit Stake(_msgSender(), _amount);\n    }\n\n    function rewardsSigner() external override returns (address) {\n        return tokemakRwrdContract.rewardsSigner();\n    }\n\n    // @notice Claim Tokemak's rewards in Toke Asset for being LP\n    // @param recipient Struct:\n    //        chainId, cycle (epochs for funds management), wallet address, claim amount\n    // @param v ECDSA signature v,\n    // @param r ECDSA signature r,\n    // @param s ECDSA signature s,\n    function claim(\n        Recipient calldata recipient,\n        uint8 v,\n        bytes32 r,\n        bytes32 s // bytes calldata signature\n    ) external override {\n        tokemakRwrdContract.claim(recipient, v, r, s);\n    }\n\n    // @notice Get current claimable token rewards amount\n    // @return amount to claim in the current cycle\n    function getClaimableAmount(Recipient calldata recipient)\n        external\n        override\n        returns (uint256)\n    {\n        return tokemakRwrdContract.getClaimableAmount(recipient);\n    }\n\n    // @notice Auto-compound call to claim and re-stake rewards\n    // @dev Function call execute the following steps:\n    // @dev 1.- Check for positive amount of toke rewards in current cycle\n    // @dev 2.- Claim TOKE rewards\n    // @dev 3.- Swap needed amount of total TOKE rewards to form token pair TOKE-ETH\n    // @dev 4.- Provide liquidity to UniswapV2 to TOKE-ETH pool & Receive UNIV2 LP Token\n    // @dev 5.- Stake UNIV2 LP Token into TOKEMAK Uni LP Token Pool\n    // @param v ECDSA signature,\n    // @param r ECDSA signature,\n    // @param s ECDSA signature,\n    function autoCompoundWithPermit(\n        Recipient memory recipient,\n        uint8 v,\n        bytes32 r,\n        bytes32 s\n    ) external {\n        // @dev 1.- Check for positive amount of toke rewards in current cycle\n        uint256 claimableRwrds = this.getClaimableAmount(recipient);\n        uint256 tokemakBalance;\n\n        // @dev 2.- Claim TOKE rewards\n        if (claimableRwrds > 0) {\n            this.claim(recipient, v, r, s);\n            tokemakBalance = tokematAsset.balanceOf(address(this));\n            require(\n                tokemakBalance >= claimableRwrds,\n                \"TUniLPS 05: Rewards claim failed.\"\n            );\n        }\n        // @dev 3.- Swap needed amount of total TOKE rewards to form token pair TOKE-ETH\n        _buyWETH(tokemakBalance);\n\n        uint256 wethBalance = wethAsset.balanceOf(address(this));\n        // @dev 4.- Provide liquidity to UniswapV2 to TOKE-ETH pool\n        (, , uint256 lpAmount) = addLiquidity(\n            address(tokematAsset),\n            address(wethAsset),\n            tokemakBalance,\n            wethBalance\n        );\n        // @dev 5.- Stake UNIV2 LP Token into TOKEMAK Uni LP Token Pool\n        if (lpAmount > 0) _stake(lpAmount);\n    }\n\n    // @notice Buy needed WETHc to form token pair TOKE-ETH\n    // @param _amount of weth to buy\n    // @return Weth amount bought\n    function _buyWETH(uint256 _amount) internal returns (uint256) {\n        (uint256 reserveA, ) = UniswapV2Library.getReserves(\n            uniswapV2Router02.factory(),\n            address(tokematAsset),\n            address(wethAsset)\n        );\n\n        // @dev ondo.fi use of Zapper's Babylonian function to balance amount of assets for LP pool\n        uint256 amountToSwap = calculateSwapInAmount(reserveA, _amount);\n        address[] memory path = new address[](2);\n        path[0] = address(tokematAsset);\n        path[1] = address(wethAsset);\n\n        return swapExactTokens(amountToSwap, 0, path);\n    }\n\n    // @notice Exactly how much of userIn to swap to get perfectly balanced ratio for LP tokens\n    // @dev This function is a Reused calculation from Ondo.fi sushistaking v2 strategy\n    // @dev This code is cloned from L1242-1253 of UniswapV2_ZapIn_General_V4 at https://etherscan.io/address/0x5ACedBA6C402e2682D312a7b4982eda0Ccf2d2E3#code#L1242\n    // @param reserveIn Amount of reserves for asset 0\n    // @param userIn Availabe amount of asset 0 to swap\n    // @return Amount of userIn to swap for asset 1\n    function calculateSwapInAmount(uint256 reserveIn, uint256 userIn)\n        internal\n        pure\n        returns (uint256)\n    {\n        return\n            (Babylonian.sqrt(\n                reserveIn * (userIn * 3988000 + reserveIn * 3988009)\n            ) - reserveIn * 1997) / 1994;\n    }\n\n    // @notice Swaps an exact amount of input tokens for as many output tokens as possible,\n    // @param amountIn Amount of input tokens to send\n    // @param amountOutMin Minimum amount of output tokens to receive and avoid tx revert\n    // @param path Array of toke addresses, single hop swapping path\n    function swapExactTokens(\n        uint256 amountIn,\n        uint256 amountOutMin,\n        address[] memory path\n    ) internal returns (uint256) {\n        IERC20(tokematAsset).approve(\n            address(uniswapV2Router02),\n            amountIn\n        );\n        return\n            uniswapV2Router02.swapExactTokensForTokens(\n                amountIn,\n                amountOutMin,\n                path,\n                address(this),\n                block.timestamp\n            )[path.length - 1];\n    }\n\n    // @notice Uniswapv2 function to add liquidity to existing pool\n    // @param tokenA 1st pair asset address\n    // @param tokenB 2nd pair asset address\n    // @param amount0 Aount of 1st pair asset to add as liquidity\n    // @param amount1 Amount of 2nd pair asset to add as liquidity\n    function addLiquidity(\n        address tokenA,\n        address tokenB,\n        uint256 amount0,\n        uint256 amount1\n    )\n        internal\n        returns (\n            uint256 out0,\n            uint256 out1,\n            uint256 lp\n        )\n    {\n        IERC20(tokenA).approve(\n            address(uniswapV2Router02),\n            amount0\n        );\n        IERC20(tokenB).approve(\n            address(uniswapV2Router02),\n            amount1\n        );\n        (out0, out1, lp) = uniswapV2Router02.addLiquidity(\n            tokenA,\n            tokenB,\n            amount0,\n            amount1,\n            0,\n            0,\n            address(this),\n            block.timestamp\n        );\n    }\n\n    // @notice Request anticipated withdrawal to Tokemak's Uni LP pool\n    // @dev Request will be served on next cycle (currently 7 days)\n    function requestWithdrawal(uint256 _amount) public  {\n        require(\n            _amount <= stakes,\n            \" TUniLPS 06: insufficient funds to withdraw.\"\n        );\n        tokemakUniLpPool.requestWithdrawal(_amount);\n        emit RequestWithdraw(_msgSender(), _amount);\n    }\n\n    function currentCycle() external view returns(uint256 _cycle){\n        _cycle = tokemakManagerContract.getCurrentCycle();\n    }\n\n    // @notice Withdrawal Tokemak's Uni LP tokens\n    function withdraw(uint256 _amount) public  {\n        (uint256 minCycle, ) = tokemakUniLpPool.requestedWithdrawals(\n            _msgSender()\n        );\n        require(\n            minCycle > tokemakManagerContract.getCurrentCycleIndex(),\n            \"TUniLPS 07: Withdrawal not yet available.\"\n        );\n        require(\n            _amount <= stakes,\n            \"TUniLPS 08: insufficient funds to withdraw.\"\n        );\n        stakes -= _amount;\n        tokemakUniLpPool.withdraw(_amount);\n        emit Withdraw(_msgSender(), _amount);\n    }\n\n    // @notice Returns chain Id\n    function _getChainID() private view returns (uint256) {\n        uint256 id;\n        // solhint-disable-next-line no-inline-assembly\n        assembly {\n            id := chainid()\n        }\n        return id;\n    }\n\n    function tokeToken() public override returns (IERC20) {\n        return tokemakRwrdContract.tokeToken();\n    }\n}\n",
  "sourcePath": "/Users/danielguerrero/workspace/ondo.finance/solidity-coding-challenge-eqjvpy/contracts/TokemakUniLPStrategy.sol",
  "compiler": {
    "name": "solc",
    "version": "0.8.4+commit.c7e474f2.Emscripten.clang"
  },
  "schemaVersion": "3.4.3",
  "updatedAt": "2022-04-12T16:43:47.371Z",
  "networkType": "ethereum",
  "devdoc": {
    "kind": "dev",
    "methods": {
      "owner()": {
        "details": "Returns the address of the current owner."
      },
      "renounceOwnership()": {
        "details": "Leaves the contract without owner. It will not be possible to call `onlyOwner` functions anymore. Can only be called by the current owner. NOTE: Renouncing ownership will leave the contract without an owner, thereby removing any functionality that is only available to the owner."
      },
      "transferOwnership(address)": {
        "details": "Transfers ownership of the contract to a new account (`newOwner`). Can only be called by the current owner."
      }
    },
    "version": 1
  },
  "userdoc": {
    "kind": "user",
    "methods": {},
    "version": 1
  }
}